:100000000C9435000C945D000C945D000C945D0024
:100010000C945D000C945D000C945D000C945D00EC
:100020000C945D000C945D000C945D000C945D00DC
:100030000C945D000C945D000C945D000C945D00CC
:100040000C9480010C945D000C94F0010C94CA0196
:100050000C945D000C945D000C945D000C945D00AC
:100060000C945D000C945D00220211241FBECFEFA2
:10007000D8E0DEBFCDBF11E0A0E0B1E0EAEDF5E0F1
:1000800002C005900D92A231B107D9F721E0A2E19B
:10009000B1E001C01D92AC3BB207E1F710E0C5E34F
:1000A000D0E004C02197FE010E94E502C433D107CD
:1000B000C9F70E9452020C94EB020C940000AF921C
:1000C000BF92CF92DF92EF92FF920F931F93CF9345
:1000D000DF936C017B018B01040F151FEB015E01A7
:1000E000AE18BF08C017D10759F06991D601ED913C
:1000F000FC910190F081E02DC6010995892B79F7DB
:10010000C501DF91CF911F910F91FF90EF90DF908C
:10011000CF90BF90AF900895FC01538D448D252F53
:1001200030E0842F90E0821B930B541710F0CF9691
:10013000089501970895FC01918D828D981761F0C3
:10014000A28DAE0FBF2FB11D5D968C91928D9F5FDA
:100150009F73928F90E008958FEF9FEF0895FC01B9
:10016000918D828D981731F0828DE80FF11D858D6C
:1001700090E008958FEF9FEF0895FC01918D228DFF
:10018000892F90E0805C9F4F821B91098F73992784
:1001900008958DE191E00E94BD0021E0892B09F4D2
:1001A00020E0822F0895FC01A48DA80FB92FB11D66
:1001B000A35ABF4F2C91848D90E001968F7399279D
:1001C000848FA689B7892C93A089B1898C9183707B
:1001D00080648C93938D848D981306C00288F38974
:1001E000E02D80818F7D80830895EF92FF920F93A1
:1001F0001F93CF93DF93EC0181E0888F9B8D8C8DD3
:1002000098131AC0E889F989808185FF15C09FB7C6
:10021000F894EE89FF896083E889F9898081837089
:10022000806480839FBF81E090E0DF91CF911F9138
:100230000F91FF90EF900895F62E0B8D10E00F5F59
:100240001F4F0F731127E02E8C8D8E110CC00FB62F
:1002500007FCFACFE889F989808185FFF5CFCE01C7
:100260000E94D300F1CFEB8DEC0FFD2FF11DE35A6F
:10027000FF4FF0829FB7F8940B8FEA89FB8980814A
:100280008062CFCFCF93DF93EC01888D8823B9F0C4
:10029000AA89BB89E889F9898C9185FD03C0808191
:1002A00086FD0DC00FB607FCF7CF8C9185FFF2CF0E
:1002B000808185FFEDCFCE010E94D300E9CFDF9191
:1002C000CF910895CF93C1E08DE191E00E94BD00F0
:1002D000892B71F08DE191E00E949B0080931201C7
:1002E0008D3019F4C0931301EFCF8093BB01ECCF95
:1002F000CF9108950E94C90081110C946201089564
:100300001F920F920FB60F9211242F933F938F934A
:100310009F93AF93BF938091190190911A01A0917F
:100320001B01B0911C013091180123E0230F2D37E0
:1003300058F50196A11DB11D209318018093190154
:1003400090931A01A0931B01B0931C01809114019A
:1003500090911501A0911601B09117010196A11D70
:10036000B11D8093140190931501A0931601B093D1
:100370001701BF91AF919F918F913F912F910F9056
:100380000FBE0F901F90189526E8230F0296A11D0F
:10039000B11DD2CF1F920F920FB60F9211242F933F
:1003A0003F934F935F936F937F938F939F93AF93FD
:1003B000BF93EF93FF938DE191E00E94D300FF91F3
:1003C000EF91BF91AF919F918F917F916F915F91CD
:1003D0004F913F912F910F900FBE0F901F90189546
:1003E0001F920F920FB60F9211242F938F939F930A
:1003F000EF93FF93E0912D01F0912E018081E09128
:100400003301F091340182FD1BC09081809136014F
:100410008F5F8F7320913701821741F0E091360191
:10042000F0E0E35EFE4F958F80933601FF91EF91F0
:100430009F918F912F910F900FBE0F901F90189545
:100440008081F4CFEDE1F1E01382128288EE93E037
:10045000A0E0B0E084839583A683B78384E091E035
:100460009183808385EC90E09587848784EC90E08D
:100470009787868780EC90E0918B808B81EC90E071
:10048000938B828B82EC90E0958B848B86EC90E052
:10049000978B868B118E128E138E148E89E6809325
:1004A000BA010895789484B5826084BD84B5816072
:1004B00084BD85B5826085BD85B5816085BD80912F
:1004C0006E00816080936E001092810080918100A7
:1004D000826080938100809181008160809381009F
:1004E000809180008160809380008091B100846061
:1004F0008093B1008091B00081608093B0008091C2
:100500007A00846080937A0080917A008260809380
:100510007A0080917A00816080937A0080917A00DD
:10052000806880937A001092C100E0912D01F091D3
:100530002E0182E08083E0912901F0912A0110824E
:10054000E0912B01F0912C0180E180831092350124
:10055000E0913101F091320186E08083E0912F013A
:10056000F0913001808180618083E0912F01F091D2
:100570003001808188608083E0912F01F09130010B
:10058000808180688083E0912F01F091300180812B
:100590008F7D808369E68DE191E00E94F500809176
:1005A0001301882359F08091BB01883629F468E64D
:1005B0008DE191E00E94F500109213010E94C900A4
:1005C000882369F30E946201EACFEE0FFF1F0590B6
:0A05D000F491E02D0994F894FFCF98
:1005DA0000000000F5005F008C004201BD009B0096
:0205EA00AF0060
:00000001FF
