:100000000C9435000C945D000C945D000C945D0024
:100010000C945D000C945D000C945D000C945D00EC
:100020000C945D000C945D000C945D000C945D00DC
:100030000C945D000C945D000C945D000C945D00CC
:100040000C94D1010C945D000C9441020C941B02A1
:100050000C945D000C945D000C945D000C945D00AC
:100060000C945D000C945D00730211241FBECFEF51
:10007000D8E0DEBFCDBF11E0A0E0B1E0EAE9FBE0EF
:1000800002C005900D92AE31B107D9F721E0AEE183
:10009000B1E001C01D92AC3CB207E1F710E0C5E34E
:1000A000D0E004C02197FE010E94C505C433D107EA
:1000B000C9F70E94AC020C94CB050C940000AF92DF
:1000C000BF92CF92DF92EF92FF920F931F93CF9345
:1000D000DF936C017B018B01040F151FEB015E01A7
:1000E000AE18BF08C017D10759F06991D601ED913C
:1000F000FC910190F081E02DC6010995892B79F7DB
:10010000C501DF91CF911F910F91FF90EF90DF908C
:10011000CF90BF90AF900895FC01538D448D252F53
:1001200030E0842F90E0821B930B541710F0CF9691
:10013000089501970895FC01918D828D981761F0C3
:10014000A28DAE0FBF2FB11D5D968C91928D9F5FDA
:100150009F73928F90E008958FEF9FEF0895FC01B9
:10016000918D828D981731F0828DE80FF11D858D6C
:1001700090E008958FEF9FEF0895FC01918D228DFF
:10018000892F90E0805C9F4F821B91098F73992784
:10019000089589E291E00E94BD0021E0892B09F4D5
:1001A00020E0822F0895FC01A48DA80FB92FB11D66
:1001B000A35ABF4F2C91848D90E001968F7399279D
:1001C000848FA689B7892C93A089B1898C9183707B
:1001D00080648C93938D848D981306C00288F38974
:1001E000E02D80818F7D80830895EF92FF920F93A1
:1001F0001F93CF93DF93EC0181E0888F9B8D8C8DD3
:1002000098131AC0E889F989808185FF15C09FB7C6
:10021000F894EE89FF896083E889F9898081837089
:10022000806480839FBF81E090E0DF91CF911F9138
:100230000F91FF90EF900895F62E0B8D10E00F5F59
:100240001F4F0F731127E02E8C8D8E110CC00FB62F
:1002500007FCFACFE889F989808185FFF5CFCE01C7
:100260000E94D300F1CFEB8DEC0FFD2FF11DE35A6F
:10027000FF4FF0829FB7F8940B8FEA89FB8980814A
:100280008062CFCFCF93DF93EC01888D8823B9F0C4
:10029000AA89BB89E889F9898C9185FD03C0808191
:1002A00086FD0DC00FB607FCF7CF8C9185FFF2CF0E
:1002B000808185FFEDCFCE010E94D300E9CFDF9191
:1002C000CF910895CF93C1E089E291E00E94BD00F3
:1002D000892B71F089E291E00E949B0080931E01BE
:1002E0008D3019F4C0931F01EFCF8093C701ECCF7D
:1002F000CF9108950E94C90081110C946201089564
:10030000FC0101900020E9F73197AF01481B590B20
:10031000BC0189E291E00C945F008F929F92AF92B2
:10032000BF920F931F93CF93DF93CDB7DEB7A19703
:100330000FB6F894DEBF0FBECDBF19A2423008F44D
:100340004AE08E010F5D1F4F842E912CB12CA12C01
:10035000A50194010E94A305E62FB901CA01EA3064
:10036000F4F4E05DD801EE938D01232B242B252B93
:1003700079F790E080E0109719F0CD010E9480019C
:10038000A1960FB6F894DEBF0FBECDBFDF91CF911F
:100390001F910F91BF90AF909F908F900895E95C4F
:1003A000E1CF1F920F920FB60F9211242F933F931C
:1003B0008F939F93AF93BF938091250190912601D6
:1003C000A0912701B09128013091240123E0230F4F
:1003D0002D3758F50196A11DB11D2093240180935E
:1003E000250190932601A0932701B09328018091C5
:1003F000200190912101A0912201B0912301019649
:10040000A11DB11D8093200190932101A093220191
:10041000B0932301BF91AF919F918F913F912F9105
:100420000F900FBE0F901F90189526E8230F02968D
:10043000A11DB11DD2CF1F920F920FB60F921124A2
:100440002F933F934F935F936F937F938F939F93DC
:10045000AF93BF93EF93FF9389E291E00E94D300A3
:10046000FF91EF91BF91AF919F918F917F916F918C
:100470005F914F913F912F910F900FBE0F901F9062
:1004800018951F920F920FB60F9211242F938F93EE
:100490009F93EF93FF93E0913901F0913A018081AE
:1004A000E0913F01F091400182FD1BC0908180915D
:1004B00042018F5F8F7320914301821741F0E091D9
:1004C0004201F0E0E75DFE4F958F80934201FF917E
:1004D000EF919F918F912F910F900FBE0F901F90D2
:1004E00018958081F4CFE9E2F1E01382128288EE60
:1004F00093E0A0E0B0E084839583A683B78384E093
:1005000091E09183808385EC90E09587848784ECEB
:1005100090E09787868780EC90E0918B808B81ECD0
:1005200090E0938B828B82EC90E0958B848B86ECB1
:1005300090E0978B868B118E128E138E148EE6ECC4
:10054000F1E08AED9FE0A9E4B0E482839383A48381
:10055000B58389E680830895789484B5826084BDEC
:1005600084B5816084BD85B5826085BD85B58160B7
:1005700085BD80916E00816080936E001092810035
:1005800080918100826080938100809181008160F0
:1005900080938100809180008160809380008091B1
:1005A000B10084608093B1008091B000816080933D
:1005B000B00080917A00846080937A0080917A0004
:1005C000826080937A0080917A00816080937A00C3
:1005D00080917A00806880937A001092C100E09147
:1005E0003901F0913A0182E08083E0913501F09188
:1005F00036011082E0913701F091380180E180836B
:1006000010924101E0913D01F0913E0186E080832E
:10061000E0913B01F0913C01808180618083E09119
:100620003B01F0913C01808188608083E0913B0137
:10063000F0913C01808180688083E0913B01F091E2
:100640003C0180818F7D808369E689E291E00E9490
:10065000F50080911F018823D1F08091C701883671
:10066000A1F4C090C801D090C901E090CA01F090F7
:10067000CB01A7019601C701B6010E949E05882300
:1006800069F082E191E00E94800110921F010E94B6
:10069000C9008823F1F20E946201DBCF46015701B5
:1006A000E894B7F82FEF3FEF4FE75FE7C501B401DC
:1006B0000E949E0581110DC02FEF3FEF4FE75FE7CE
:1006C000C501B4010E94460418161CF486E191E0AD
:1006D000DACF2FEF3FEF4FE75FE4C701B6010E948B
:1006E0002C0518161CF48AE191E0CDCF2FEF3FEFD7
:1006F0004FE75FECC701B6010E94460487FDF3CFC8
:1007000020E030E0A901C701B6010E94460487FF3E
:1007100009C06DE289E291E00E94F500F7FAF094D9
:10072000F7F8F0942BEA35EC47EA56E3C701B60137
:100730000E94DA036B017C010E944B044B015C01B7
:100740000E947A049B01AC01C701B6010E94D90343
:100750006B017C014AE0C501B4010E948D016EE28B
:1007600089E291E00E94F500C6E0C15009F48DCF06
:1007700020E030E040E251E4C701B6010E943105BB
:100780004B015C010E944B046B01F12CE12C4AE00F
:10079000C701B6010E948D01C701B6010E947A040B
:1007A0009B01AC01C501B4010E94D9036B017C011E
:1007B000DCCF5058BB27AA270E94F1030C94F20407
:1007C0000E94E40438F00E94EB0420F039F49F3FCB
:1007D00019F426F40C94E1040EF4E095E7FB0C9474
:1007E000DB04E92F0E94030558F3BA176207730769
:1007F0008407950720F079F4A6F50C9425050EF4EE
:10080000E0950B2EBA2FA02D0B01B90190010C0120
:10081000CA01A0011124FF27591B99F0593F50F438
:10082000503E68F11A16F040A22F232F342F442790
:10083000585FF3CF469537952795A795F040539588
:10084000C9F77EF41F16BA0B620B730B840BBAF058
:100850009150A1F0FF0FBB1F661F771F881FC2F7C3
:100860000EC0BA0F621F731F841F48F487957795D7
:100870006795B795F7959E3F08F0B0CF9395880F91
:1008800008F09927EE0F9795879508950E94B70471
:1008900008F481E008950E940B0588F09F5798F0B6
:1008A000B92F9927B751B0F0E1F0660F771F881F75
:1008B000991F1AF0BA95C9F714C0B13091F00E948F
:1008C0002505B1E008950C942505672F782F88271A
:1008D000B85F39F0B93FCCF3869577956795B395B6
:1008E000D9F73EF490958095709561957F4F8F4F25
:1008F0009F4F0895E89409C097FB3EF4909580952A
:10090000709561957F4F8F4F9F4F9923A9F0F92FD5
:1009100096E9BB279395F695879577956795B79553
:10092000F111F8CFFAF4BB0F11F460FF1BC06F5F39
:100930007F4F8F4F9F4F16C0882311F096E911C04B
:10094000772321F09EE8872F762F05C0662371F06C
:1009500096E8862F70E060E02AF09A95660F771F80
:10096000881FDAF7880F9695879597F90895990F5C
:100970000008550FAA0BE0E8FEEF16161706E80769
:10098000F907C0F012161306E407F50798F0621B8A
:10099000730B840B950B39F40A2661F0232B242B5F
:1009A000252B21F408950A2609F4A140A6958FEF7E
:1009B000811D811D089597F99F6780E870E060E0D0
:1009C00008959FEF80EC089500240A9416161706E8
:1009D00018060906089500240A9412161306140630
:1009E00005060895092E0394000C11F4882352F093
:1009F000BB0F40F4BF2B11F460FF04C06F5F7F4F4B
:100A00008F4F9F4F089557FD9058440F551F59F031
:100A10005F3F71F04795880F97FB991F61F09F3FEB
:100A200079F087950895121613061406551FF2CF14
:100A30004695F1DF08C0161617061806991FF1CF64
:100A400086957105610508940895E894BB2766278B
:100A50007727CB0197F908950E94B70408F48FEF28
:100A600008950E9444050C94F2040E94E40438F0B6
:100A70000E94EB0420F0952311F00C94DB040C94FD
:100A8000E10411240C9426050E94030570F3959F40
:100A9000C1F3950F50E0551F629FF001729FBB2775
:100AA000F00DB11D639FAA27F00DB11DAA1F649F11
:100AB0006627B00DA11D661F829F2227B00DA11DC4
:100AC000621F739FB00DA11D621F839FA00D611D4A
:100AD000221F749F3327A00D611D231F849F600D6B
:100AE000211D822F762F6A2F11249F5750409AF094
:100AF000F1F088234AF0EE0FFF1FBB1F661F771F20
:100B0000881F91505040A9F79E3F510580F00C94EA
:100B1000DB040C9426055F3FE4F3983ED4F38695FE
:100B200077956795B795F795E7959F5FC1F7FE2B8A
:100B3000880F911D9695879597F908950E94B7049F
:100B4000880B990B0895A1E21A2EAA1BBB1BFD016D
:100B50000DC0AA1FBB1FEE1FFF1FA217B307E4079C
:100B6000F50720F0A21BB30BE40BF50B661F771FF4
:100B7000881F991F1A9469F76095709580959095D4
:100B80009B01AC01BD01CF010895EE0FFF1F059041
:0A0B9000F491E02D0994F894FFCFD2
:100B9A0000000000F5005F008C004201BD009B00D0
:0E0BAA00AF006E616E00696E66006F766600C9
:00000001FF
