:020000040000FA
:100000000C9435000C945D000C945D000C945D0024
:100010000C945D000C945D000C945D000C945D00EC
:100020000C945D000C945D000C945D000C945D00DC
:100030000C945D000C945D000C945D000C945D00CC
:100040000C9480010C945D000C94F0010C94CA0196
:100050000C945D000C945D000C945D000C945D00AC
:100060000C945D000C945D00220211241FBECFEFA2
:10007000D8E0DEBFCDBF11E0A0E0B1E0E0E7F6E000
:1000800002C005900D92A235B107D9F722E0A2E592
:10009000B1E001C01D92A630B207E1F710E0C5E360
:1000A000D0E004C02197FE010E943003C433D10781
:1000B000C9F70E945B020C9436030C940000AF92C7
:1000C000BF92CF92DF92EF92FF920F931F93CF9345
:1000D000DF936C017B018B01040F151FEB015E01A7
:1000E000AE18BF08C017D10759F06991D601ED913C
:1000F000FC910190F081E02DC6010995892B79F7DB
:10010000C501DF91CF911F910F91FF90EF90DF908C
:10011000CF90BF90AF900895FC01538D448D252F53
:1001200030E0842F90E0821B930B541710F0CF9691
:10013000089501970895FC01918D828D981761F0C3
:10014000A28DAE0FBF2FB11D5D968C91928D9F5FDA
:100150009F73928F90E008958FEF9FEF0895FC01B9
:10016000918D828D981731F0828DE80FF11D858D6C
:1001700090E008958FEF9FEF0895FC01918D228DFF
:10018000892F90E0805C9F4F821B91098F73992784
:10019000089583E691E00E94BD0021E0892B09F4D7
:1001A00020E0822F0895FC01A48DA80FB92FB11D66
:1001B000A35ABF4F2C91848D90E001968F7399279D
:1001C000848FA689B7892C93A089B1898C9183707B
:1001D00080648C93938D848D981306C00288F38974
:1001E000E02D80818F7D80830895EF92FF920F93A1
:1001F0001F93CF93DF93EC0181E0888F9B8D8C8DD3
:1002000098131AC0E889F989808185FF15C09FB7C6
:10021000F894EE89FF896083E889F9898081837089
:10022000806480839FBF81E090E0DF91CF911F9138
:100230000F91FF90EF900895F62E0B8D10E00F5F59
:100240001F4F0F731127E02E8C8D8E110CC00FB62F
:1002500007FCFACFE889F989808185FFF5CFCE01C7
:100260000E94D300F1CFEB8DEC0FFD2FF11DE35A6F
:10027000FF4FF0829FB7F8940B8FEA89FB8980814A
:100280008062CFCFCF93DF93EC01888D8823B9F0C4
:10029000AA89BB89E889F9898C9185FD03C0808191
:1002A00086FD0DC00FB607FCF7CF8C9185FFF2CF0E
:1002B000808185FFEDCFCE010E94D300E9CFDF9191
:1002C000CF910895CF93C1E083E691E00E94BD00F5
:1002D000892B71F083E691E00E949B00809352018C
:1002E0008D3019F4C0935901EFCF80930102ECCF08
:1002F000CF9108950E94C90081110C946201089564
:100300001F920F920FB60F9211242F933F938F934A
:100310009F93AF93BF9380915F0190916001A091F3
:100320006101B091620130915E0123E0230F2D370E
:1003300058F50196A11DB11D20935E0180935F01C8
:1003400090936001A0936101B093620180915A0182
:1003500090915B01A0915C01B0915D010196A11D9E
:10036000B11D80935A0190935B01A0935C01B093FF
:100370005D01BF91AF919F918F913F912F910F9010
:100380000FBE0F901F90189526E8230F0296A11D0F
:10039000B11DD2CF1F920F920FB60F9211242F933F
:1003A0003F934F935F936F937F938F939F93AF93FD
:1003B000BF93EF93FF9383E691E00E94D300FF91F8
:1003C000EF91BF91AF919F918F917F916F915F91CD
:1003D0004F913F912F910F900FBE0F901F90189546
:1003E0001F920F920FB60F9211242F938F939F930A
:1003F000EF93FF93E0917301F09174018081E0919C
:100400007901F0917A0182FD1BC0908180917C017D
:100410008F5F8F7320917D01821741F0E0917C0105
:10042000F0E0ED59FE4F958F80937C01FF91EF91A5
:100430009F918F912F910F900FBE0F901F90189545
:100440008081F4CFE3E6F1E01382128288EE93E03C
:10045000A0E0B0E084839583A683B78384E091E035
:100460009183808385EC90E09587848784EC90E08D
:100470009787868780EC90E0918B808B81EC90E071
:10048000938B828B82EC90E0958B848B86EC90E052
:10049000978B868B118E128E138E148EE0E0F2E015
:1004A0008AED9FE0A9E4B0E482839383A483B583BB
:1004B00089E680830895789484B5826084BD84B58C
:1004C000816084BD85B5826085BD85B5816085BD4F
:1004D00080916E00816080936E0010928100809107
:1004E000810082608093810080918100816080938F
:1004F0008100809180008160809380008091B100B4
:1005000084608093B1008091B00081608093B000DE
:1005100080917A00846080937A0080917A00826072
:1005200080937A0080917A00816080937A00809134
:100530007A00806880937A001092C100E091730184
:10054000F091740182E08083E0916F01F09170017D
:100550001082E0917101F091720180E1808310922C
:100560007B01E0917701F091780186E08083E09152
:100570007501F0917601808180618083E091750141
:10058000F0917601808188608083E0917501F0911F
:100590007601808180688083E0917501F091760119
:1005A00080818F7D808369E683E691E00E94F5007B
:1005B00080915901882309F44BC080915701909193
:1005C0005801853691050CF041C02FB7F894809101
:1005D0005F0190916001A0916101B09162012FBF14
:1005E0004091530150915401609155017091560111
:1005F000841B950BA60BB70B84369105A105B1059D
:10060000E0F22FB7F89480915F0190916001A09182
:100610006101B09162012FBF809353019093540107
:10062000A0935501B09356014FE350E062E171E0B1
:1006300083E691E00E945F008091570190915801FC
:1006400001969093580180935701B7CF10925901AA
:100650000E94C900882309F4ABCF0E946201A8CF91
:10066000EE0FFF1F0590F491E02D0994F894FFCF51
:1006700000000000F5005F008C004201BD009B00FF
:10068000AF003131313131312C3232323232322C11
:100690003333333333332C3434343434342C35352E
:1006A000353535352C3636363636362C37373737FE
:1006B00037372C3838383838382C393939393939CE
:0206C0007800C0
:107E0000112484B714BE81FFF0D085E080938100F7
:107E100082E08093C00088E18093C10086E0809377
:107E2000C20080E18093C4008EE0C9D0259A86E02C
:107E300020E33CEF91E0309385002093840096BBD3
:107E4000B09BFECF1D9AA8958150A9F7CC24DD24C4
:107E500088248394B5E0AB2EA1E19A2EF3E0BF2EE7
:107E6000A2D0813461F49FD0082FAFD0023811F036
:107E7000013811F484E001C083E08DD089C08234E0
:107E800011F484E103C0853419F485E0A6D080C0E4
:107E9000853579F488D0E82EFF2485D0082F10E0AE
:107EA000102F00270E291F29000F111F8ED06801E7
:107EB0006FC0863521F484E090D080E0DECF843638
:107EC00009F040C070D06FD0082F6DD080E0C81688
:107ED00080E7D80618F4F601B7BEE895C0E0D1E017
:107EE00062D089930C17E1F7F0E0CF16F0E7DF06D8
:107EF00018F0F601B7BEE89568D007B600FCFDCFD4
:107F0000A601A0E0B1E02C9130E011968C91119780
:107F100090E0982F8827822B932B1296FA010C0160
:107F200087BEE89511244E5F5F4FF1E0A038BF0790
:107F300051F7F601A7BEE89507B600FCFDCF97BE46
:107F4000E89526C08437B1F42ED02DD0F82E2BD052
:107F50003CD0F601EF2C8F010F5F1F4F84911BD097
:107F6000EA94F801C1F70894C11CD11CFA94CF0C13
:107F7000D11C0EC0853739F428D08EE10CD085E9AC
:107F80000AD08FE07ACF813511F488E018D01DD067
:107F900080E101D065CF982F8091C00085FFFCCF94
:107FA0009093C60008958091C00087FFFCCF809118
:107FB000C00084FD01C0A8958091C6000895E0E648
:107FC000F0E098E1908380830895EDDF803219F02E
:107FD00088E0F5DFFFCF84E1DECF1F93182FE3DFCA
:107FE0001150E9F7F2DF1F91089580E0E8DFEE27F6
:047FF000FF270994CA
:027FFE00040479
:00000001FF
