:100000000C9435000C945D000C945D000C945D0024
:100010000C945D000C945D000C945D000C945D00EC
:100020000C945D000C945D000C945D000C945D00DC
:100030000C945D000C945D000C945D000C945D00CC
:100040000C9480010C945D000C94F0010C94CA0196
:100050000C945D000C945D000C945D000C945D00AC
:100060000C945D000C945D00220211241FBECFEFA2
:10007000D8E0DEBFCDBF11E0A0E0B1E0EEEEF5E0EC
:1000800002C005900D92A231B107D9F721E0A2E19B
:10009000B1E001C01D92A23CB207E1F710E0C5E358
:1000A000D0E004C02197FE010E94EF02C433D107C3
:1000B000C9F70E945B020C94F5020C940000AF9209
:1000C000BF92CF92DF92EF92FF920F931F93CF9345
:1000D000DF936C017B018B01040F151FEB015E01A7
:1000E000AE18BF08C017D10759F06991D601ED913C
:1000F000FC910190F081E02DC6010995892B79F7DB
:10010000C501DF91CF911F910F91FF90EF90DF908C
:10011000CF90BF90AF900895FC01538D448D252F53
:1001200030E0842F90E0821B930B541710F0CF9691
:10013000089501970895FC01918D828D981761F0C3
:10014000A28DAE0FBF2FB11D5D968C91928D9F5FDA
:100150009F73928F90E008958FEF9FEF0895FC01B9
:10016000918D828D981731F0828DE80FF11D858D6C
:1001700090E008958FEF9FEF0895FC01918D228DFF
:10018000892F90E0805C9F4F821B91098F73992784
:1001900008958FE191E00E94BD0021E0892B09F4D0
:1001A00020E0822F0895FC01A48DA80FB92FB11D66
:1001B000A35ABF4F2C91848D90E001968F7399279D
:1001C000848FA689B7892C93A089B1898C9183707B
:1001D00080648C93938D848D981306C00288F38974
:1001E000E02D80818F7D80830895EF92FF920F93A1
:1001F0001F93CF93DF93EC0181E0888F9B8D8C8DD3
:1002000098131AC0E889F989808185FF15C09FB7C6
:10021000F894EE89FF896083E889F9898081837089
:10022000806480839FBF81E090E0DF91CF911F9138
:100230000F91FF90EF900895F62E0B8D10E00F5F59
:100240001F4F0F731127E02E8C8D8E110CC00FB62F
:1002500007FCFACFE889F989808185FFF5CFCE01C7
:100260000E94D300F1CFEB8DEC0FFD2FF11DE35A6F
:10027000FF4FF0829FB7F8940B8FEA89FB8980814A
:100280008062CFCFCF93DF93EC01888D8823B9F0C4
:10029000AA89BB89E889F9898C9185FD03C0808191
:1002A00086FD0DC00FB607FCF7CF8C9185FFF2CF0E
:1002B000808185FFEDCFCE010E94D300E9CFDF9191
:1002C000CF910895CF93C1E08FE191E00E94BD00EE
:1002D000892B71F08FE191E00E949B0080931201C5
:1002E0008D3019F4C0931301EFCF8093BD01ECCF93
:1002F000CF9108950E94C90081110C946201089564
:100300001F920F920FB60F9211242F933F938F934A
:100310009F93AF93BF9380911B0190911C01A0917B
:100320001D01B0911E0130911A0123E0230F2D37DA
:1003300058F50196A11DB11D20931A0180931B0150
:1003400090931C01A0931D01B0931E018091160192
:1003500090911701A0911801B09119010196A11D6A
:10036000B11D8093160190931701A0931801B093CB
:100370001901BF91AF919F918F913F912F910F9054
:100380000FBE0F901F90189526E8230F0296A11D0F
:10039000B11DD2CF1F920F920FB60F9211242F933F
:1003A0003F934F935F936F937F938F939F93AF93FD
:1003B000BF93EF93FF938FE191E00E94D300FF91F1
:1003C000EF91BF91AF919F918F917F916F915F91CD
:1003D0004F913F912F910F900FBE0F901F90189546
:1003E0001F920F920FB60F9211242F938F939F930A
:1003F000EF93FF93E0912F01F09130018081E09124
:100400003501F091360182FD1BC090818091380149
:100410008F5F8F7320913901821741F0E09138018D
:10042000F0E0E15EFE4F958F80933801FF91EF91F0
:100430009F918F912F910F900FBE0F901F90189545
:100440008081F4CFEFE1F1E01382128288EE93E035
:10045000A0E0B0E084839583A683B78384E091E035
:100460009183808385EC90E09587848784EC90E08D
:100470009787868780EC90E0918B808B81EC90E071
:10048000938B828B82EC90E0958B848B86EC90E052
:10049000978B868B118E128E138E148EECEBF1E0FF
:1004A0008AED9FE0A9E4B0E482839383A483B583BB
:1004B00089E680830895789484B5826084BD84B58C
:1004C000816084BD85B5826085BD85B5816085BD4F
:1004D00080916E00816080936E0010928100809107
:1004E000810082608093810080918100816080938F
:1004F0008100809180008160809380008091B100B4
:1005000084608093B1008091B00081608093B000DE
:1005100080917A00846080937A0080917A00826072
:1005200080937A0080917A00816080937A00809134
:100530007A00806880937A001092C100E0912F01C8
:10054000F091300182E08083E0912B01F0912C0149
:100550001082E0912D01F0912E0180E180831092B4
:100560003701E0913301F091340186E08083E0911E
:100570003101F0913201808180618083E09131010D
:10058000F0913201808188608083E0913101F091A7
:100590003201808180688083E0913101F0913201E5
:1005A00080818F7D808369E68FE191E00E94F50074
:1005B000C1E0D0E08091140190911501892B41F4A4
:1005C00080911301882321F0D0931501C093140169
:1005D0000E94C900882371F30E946201EBCFEE0FE5
:0E05E000FF1F0590F491E02D0994F894FFCFD1
:1005EE0000000000F5005F008C004201BD009B0082
:0205FE00AF004C
:00000001FF
